:100000000C942A000C943C000C943C000C943C0092
:100010000C943C000C943C000C943C000C943C0070
:100020000C943C000C943C000C943C000C943C0060
:100030000C943C000C943C000C943C000C943C0050
:100040000C943C000C943C000C943C000C943C0040
:100050000C943C0011241FBECFE5D8E0DEBFCDBF1D
:1000600020E0A0E6B0E001C01D92A636B207E1F79D
:100070000E9453000C942F010C94000017B883E8E1
:1000800086B9089597B1907E97B997B1892B87B9B2
:1000900086B1806486B9349BFECF86B1806186B913
:1000A00084B195B108950E943E008FEF84BB15BACC
:1000B00080E00E94420090936500809364008091EC
:1000C0006400909165009C01220F331F220F331FA3
:1000D000820F931F6FEF73E00E941B0180E090E09E
:1000E0000E94B5006093600070936100809362008D
:1000F0009093630060916000709161008091620054
:10010000909163000E94860065BBD2CF0E94FA00E6
:1001100088F09F5798F0B92F9927B751B0F0E1F0C8
:10012000660F771F881F991F1AF0BA95C9F714C078
:10013000B13091F00E941401B1E008950C941401C3
:10014000672F782F8827B85F39F0B93FCCF38695B1
:1001500077956795B395D9F73EF49095809570950E
:1001600061957F4F8F4F9F4F0895E89409C097FB8B
:100170003EF490958095709561957F4F8F4F9F4F7E
:100180009923A9F0F92F96E9BB279395F6958795C2
:1001900077956795B795F111F8CFFAF4BB0F11F485
:1001A00060FF1BC06F5F7F4F8F4F9F4F16C088232C
:1001B00011F096E911C0772321F09EE8872F762F62
:1001C00005C0662371F096E8862F70E060E02AF0A3
:1001D0009A95660F771F881FDAF7880F969587958F
:1001E00097F9089557FD9058440F551F59F05F3FF8
:1001F00071F04795880F97FB991F61F09F3F79F049
:1002000087950895121613061406551FF2CF4695CA
:10021000F1DF08C0161617061806991FF1CF86954C
:100220007105610508940895E894BB276627772730
:10023000CB0197F90895AA1BBB1B51E107C0AA1F68
:10024000BB1FA617B70710F0A61BB70B881F991F77
:100250005A95A9F780959095BC01CD010895F89421
:02026000FFCFCE
:00000001FF
